:0C0000000C9454000C9400000C940000C0
:10000C000C9400000C9400000C9400000C94000064
:10001C000C9400000C9400000C9400000C94A000B4
:10002C000C9400000C9400000C9400000C949C00A8
:10003C000C9400000C9400000C9400000C94000034
:10004C000C9400000C9400000C9400000C94000024
:10005C000C9400000C9400000C9400000C94000014
:10006C000C9400000C9400000C9400000C94000004
:10007C000C9400000C9400000C9400000C940000F4
:10008C00303001002D4E414E00494E46000002001A
:10009C0004008C00010088058E000000F894EE2707
:1000AC00ECBBF1E0F5BFE5BFE0936C008DE0A2E0A6
:1000BC00BB27ED938A95E9F780E090E1A0E0B1E0F1
:1000CC00ED930197E9F7EAE9F0E0859195910097B6
:1000DC0061F0A591B59105901590BF01F0010590C7
:1000EC000D920197E1F7FB01F0CFEFEFEDBFE0E1EF
:1000FC00EEBFC0E0D5E00C94AE001A930A93E091E9
:10010C009B001E2FE078D9F300919C00E12FEC713D
:10011C0011F4E02F01C0F3CF0991199108951A93AE
:10012C001A2F5D9BFECF1CB9199108959CD3ACE19D
:10013C00B5E003C098D3A0E2B5E0FBD49DD3E99120
:10014C00EFBFF991E991B991A991799169911895BC
:10015C00E0E0EABBEBBBE7BBE8BBE4BBE5BBE1BB68
:10016C00E2BBE2B9E3B9E0936100E0936200E09393
:10017C006400E0936500E0BFE3BFE2BFE1BFE1E0F4
:10018C00EFBDE9E4EEBDE0E0EDBDECBDE7BDE6BDE5
:10019C00EBBDEABDE9BDE8BDE0937900E0937800E2
:1001AC00E1E0E5BDE0E0E4BDE3BDE0938B00E0E41D
:1001BC00E0938A00E0E0E0938900E0938800E0930C
:1001CC008100E0938000E0938700E0938600E09349
:1001DC008500E0938400E0938300E0938200E4E4E4
:1001EC00E7BFE0E0E0937D00E0936A00EABFE9BF7F
:1001FC00EBB9E8E0EAB9E6E0E0939500E0E0E093E3
:10020C009000E3E3E9B9E0E0E0939B00E0E1E093E8
:10021C009A00E6E0E0939D00E0E0E0939800E3E3D1
:10022C00E0939900E0E8E8B9E0E0E0BDE6B9EDB9AB
:10023C00E09374007894E0E0E5BDEEBDE1E0EFBD45
:10024C0021D3E0E0E4BDE7BFE0E0E0933005E093CC
:10025C003105E0933205E0933305E0933405E093E8
:10026C003505E0933605E0933705E0933805E093C8
:10027C003905E0933A05E0933B05E0933C05E093A8
:10028C003D05E0933E05E0933F05E0934005E09388
:10029C004105E0934205E0934305F9D2E0E0E09399
:1002AC004805E0934905E0934A05E0934B0525DFAB
:1002BC00E63501F5F6D2FF93EF931FDFAF91BF91B7
:1002CC00EC93EFD2A081A63551F4F2D2E09348051D
:1002DC00F093490560934A0570934B050BC0EDD222
:1002EC00F5D2E0933005F0933105609332057093AD
:1002FC003305E0CFA0914805B091490580914A059E
:10030C0090914B05E8D299F6E0913005F0913105CA
:10031C00EF5AFA4FA0E0A083BAD2CFD2A0914405F5
:10032C00B0914505809146059091470525D408F07C
:10033C006DC0D9D2A43511F4BBD2DDD2D4D2A33541
:10034C0011F4F3D2D8D2E0913405F09135056091D7
:10035C0036057091370501D4C9F4A0913805B091D8
:10036C003905AC59BA4FE6D2E0913805F091390510
:10037C0060913A0570913B05A9D2E0933805F09352
:10038C00390560933A0570933B053BC0A091340549
:10039C00B091350580913605909137059CD2C9F402
:1003AC00A0913C05B0913D05A659BA4FC3D2E0913E
:1003BC003C05F0913D0560913E0570913F0586D25C
:1003CC00E0933C05F0933D0560933E0570933F052B
:1003DC0018C0A0914005B0914105A059BA4FAAD2BE
:1003EC00E0914005F0914105609142057091430503
:1003FC006DD2E0934005F0934105609342057093F4
:10040C004305A4E4B5E095D337D287CFE091380506
:10041C00F0913905EC59FA4FA0E0A083E0913C052E
:10042C00F0913D05E659FA4FA083E0914005F0911B
:10043C004105E059FA4FA083A4E6B5E08AD12CD34C
:10044C00E0931405F093150560931605709317054A
:10045C00AAE6B5E07ED120D3E0930C05F0930D0510
:10046C0060930E0570930F05A0E7B5E072D114D31D
:10047C00E0931805F093190560931A0570931B050A
:10048C00E4E0E7BFFFD1EFE4EEBD5DD2EEBDECB52D
:10049C00FDB566277727E0932405F0932505609337
:1004AC00260570932705E0E0E7BFE0911C05F0916D
:1004BC001D0560911E0570911F054AD2A09124055F
:1004CC00B09125058091260590912705D8D22DD283
:1004DC00E8D244D24CD242D2D5D1E0E0E0931C0514
:1004EC00E0931D05E0931E05E0931F0540D230D329
:1004FC00A6E7B5E063D1E0E4E7BFE0E0E4BDE7E008
:10050C00E5BD21D2E5BDE4B5FF2766277727E0934B
:10051C002805F093290560932A0570932B05E0E0DC
:10052C00E7BFE0912005F0912105609122057091C3
:10053C0023050ED2A0912805B091290580912A059A
:10054C0090912B059CD2F1D1ACD2E0930405F093A1
:10055C0005056093060570930705E0E0E4BDE093A4
:10056C002005E0932105E0932205E093230508D2B2
:10057C0011D2EED2ACE7B5E021D115D2E081E0305A
:10058C0019F011D217D2F9CFACE2C9DDF9D118D2DA
:10059C00E081E03019F014D20DD2F9CFABE3BFDD1E
:1005AC00F9D115D267D251D3DF01CB01E0E0F0E0F5
:1005BC0060E070E4C7D3A3ECB5EF88E490E474D3A7
:1005CC00DF01CB01E0911405F09115056091160542
:1005DC00709117053AD368D3A0E0B0E080EC90E4BA
:1005EC0063D3DF01CB01E0E0F0E46CE176E4AAD365
:1005FC00A8E0B5E0F3D2A2D2E0911805F09119056C
:10060C0060911A0570911B05A8D209F05CC0E091AD
:10061C001005F09111056091120570911305A091D0
:10062C000C05B0910D0580910E0590910F059FD290
:10063C0009F047C0A0914C05B0914D0580914E0535
:10064C0090914F05A330E0E0BE07E0E08E07E0E0BC
:10065C009E0729F59FD1C4D1BAD189D218F4E1E310
:10066C005E2E1CC084D1BCD1C0D181D218F4E1E380
:10067C004E2E14C0C3D1EB5FFF4F6F4F7F4FA09135
:10068C000805B091090580910A0590910B056FD270
:10069C0020F4E1E35E2E4E2E01C0B9D111C0E091E1
:1006AC004C05F0914D0560914E0570914F050ED1A2
:1006BC00E0934C05F0934D0560934E0570934F05F8
:1006CC0001C0A5D101C0A3D182D14BD219F48DD1D7
:1006DC0048D221F0AAE6B5E0109721F4E0E35E2EB3
:1006EC004E2E95D1A52D1BDDACE419DDA42D17DD07
:1006FC00A2E515DDE1E3E51511F0E41549F47ED131
:10070C00E0930805F093090560930A0570930B05B7
:10071C0037D1E0910805F091090560910A057091B7
:10072C000B0516D2A2E8B5E049D07BD1E081E030D0
:10073C0019F077D13FD1F9CFA3E5F1DC5FD1E0938C
:10074C001005F093110560931205709313057CCD81
:10075C00FFCFBA93AA93B981A881EC918A2FAE2FBF
:10076C0077D0A82FEE2311F01196F7CFE894EC91E7
:10077C00ED3211F4689402C0EB3209F4119666273D
:10078C007727EC918A2FAE2F5AD0A82FEE2379F031
:10079C00FB01660F771F660F771F6E0F7F1F660FAB
:1007AC00771FED91FF27E0536E0F7F1FEACFFB0100
:1007BC001EF4E095F095319622960895249750D129
:1007CC009D01E0E0FAEC6AE97BE332D100E0AB8515
:1007DC00AA235AF4E885F9856A857B8555D12DD1F4
:1007EC00D9012F5F3F4FEDE2EC932CD17AD11E2F24
:1007FC00103029F4003019F42ED16DD051F43F9300
:10080C002F932F5F3F4FE12FE05DAF91BF91EC93A2
:10081C0001E018D18AD111D11ED1EAE0F0E060E0FC
:10082C0070E05FD105D1EC81FD816E817F8195D126
:10083C00E1F6D901E0E0EC9318D12C960895AA9337
:10084C00E1E0F991F03310F0FA3308F0EE27089557
:10085C00AA93E1E0F991F03229F0F93010F0FE3072
:10086C0008F0EE2708956A937A93AA93BA93EA93C1
:10087C00FA93EFB7EA930895EF5FFF4F6F4F7F4FF7
:10088C0062D10895E0E0F0E0FDBDECBD0895E0E03C
:10089C00E0934405E0934505E0934605E093470556
:1008AC000895E0913005F0913105E05BFA4F089521
:1008BC00E1E0F0E060E070E00895E0913005F09147
:1008CC00310560913205709133050895EF5FFF4F4C
:1008DC006F4F7F4F0895A130E0E0BE07E0E08E0738
:1008EC00E0E09E070895E0914405F0914505E05B3A
:1008FC00FA4FA0810895E0933405F0933505609389
:10090C00360570933705E0914405F09145056091EB
:10091C00460570914705DADFE0934405F0934505F1
:10092C0060934605709347050895E2E0F0E060E0BF
:10093C0070E00895E0914405F0914505E05BFA4FB5
:10094C00E081EC930895A4EFB1E040D2E0E008958B
:10095C00A0E0B1E080E090E0A4D00895E093000521
:10096C00F093010560930205709303050895E091DF
:10097C000005F09101056091020570910305089541
:10098C00E0E0E0932C05E0932D05E0932E05E09339
:10099C002F050895E0910405F09105056091060579
:1009AC00709107050895E0912C05F0912D05EA58FA
:1009BC00FA4F0895A081B3DBACE2B5E0BAD05CCFBE
:1009CC00E0912C05F0912D05E458FA4F0895A09173
:1009DC000005B091010580910205909103050895E1
:1009EC00E25EFF4F6F4F7F4F0895A0910405B091C9
:1009FC00050580910605909107050895E0910C0579
:100A0C00F0910D0560910E0570910F050895E0E0D1
:100A1C00E0934C05E0934D05E0934E05E0934F05B4
:100A2C000895E0912C05F0912D05EE57FA4F08959D
:100A3C00EC83FD836E837F830895E887F9876A874B
:100A4C007B870895EC81FD816E817F81A885B985B6
:100A5C008A859B850895AC81BD818E819F81089587
:100A6C003A932A931A930A9308953B812A81198108
:100A7C0008810895EA0FFB1F681F791F0895AE0FB8
:100A8C00BF1F861F971F0895F09560957095E1958F
:100A9C00FF4F6F4F7F4F08956F2F660F660B762FAA
:100AAC0008957A9F702D6B9F700DF89F700DE99FC4
:100ABC00700D6A9F602D710DFB9F600D711DE89F7D
:100ACC00600D711D8827FA9FF02D610D781FEB9F2B
:100ADC00F00D611D781FEA9FE02DF10D681F781F46
:100AEC0008953F934F935F9300241124A00130E2AB
:100AFC00AA0FBB1F881F991F001C111C441F551FD8
:100B0C000E1A1F0A460B570B28F40E0E1F1E461FFB
:100B1C00571F01C0A1603A9559F7FD01BC01D001E6
:100B2C00CA015F914F913F910895DBDFFD01BC013C
:100B3C000895ED91FD916D917D910895ED93FD9347
:100B4C006D937C9308957E936E93FE93EE9308952C
:100B5C007A936A93FA93EA930895309760407040C1
:100B6C00089500240A160B06080609060895EA17CC
:100B7C00FB07680779070895AE17BF078607970725
:100B8C000895552342F4503811F4E0FF04C0319617
:100B9C00691F791F6BF050E8572711F45F9373C0EE
:100BAC005F3F31F0660F000C57956795752F0895D0
:100BBC005F9300200AF072C06BC050E8192E15220A
:100BCC00880F991F9527550F879550E8072E0522FA
:100BDC00660F771F7527550F67950895689401C0A8
:100BEC00E8945F93F2DF703818F07F3F08F44BC045
:100BFC0056E1571BAAF4519558300EF4593030F089
:100C0C00EFEFFFEF6FEF7FE777F91AC077275523E8
:100C1C00B9F0EE0FFF1F661F771F5A95D1F710C062
:100C2C007727583028F0EF2FF62F672F5850F9CF31
:100C3C00552331F076956795F795E7955A95D1F749
:100C4C0000200AF421DF5F910895689401C0E894B4
:100C5C00309760407040B1F0002426F0772312F4F6
:100C6C00009412DF172E7EE1112032F07A95EE0FF0
:100C7C00FF1F661F111CF9CFEF2FF62F612D5F930D
:100C8C008ADF5F910895EE27FF27BF015F910895DA
:100C9C00EFEFFFEF6FE77FEF5F910895EFEFFFEF5F
:100CAC006FE77FE75F9108955F9387DF703859F3A3
:100CBC00903849F301240894791F23F424F300207D
:100CCC003AF3ECCF0F921F932F933F934F9311272F
:100CDC0022279927689FA0018F9F302D410D591F06
:100CEC006B9F300D411D591F8E9F27D0BF9F25D064
:100CFC006A9F23D0BE9F1DD0AF9F1BD0AE9F110DFE
:100D0C00291F391F491F591FE32FF42F652F522F0D
:100D1C004F913F912F911F910F9066232AF0550F01
:100D2C00EE1FFF1F661F02C073954BF22ADF5F9107
:100D3C000895100D211D391F02C0200D311D491FB2
:100D4C00591F08955F9339DF703821F411200AF48C
:100D5C009FCFA4CF903809F496CF01240894970B19
:100D6C001BF4D4F30020F3CF792F1F932F933F93D1
:100D7C004F931124112722273327A90190E2AE1794
:100D8C00BF078607410730F0AE1BBF0B860B410B2C
:100D9C00089401C08894551F221F331F111CAA1FD1
:100DAC00BB1F881F441F9A9551F7F901612D4F9174
:100DBC003F912F911F91662332F0550FEE1FFF1FAD
:100DCC00661F7A954BF2DDDE5F910895109639F02F
:100DDC00A89580ED97E00197F1F71197C9F7089561
:00000001FF
