:0C0000000C9459000C9400000C940000BB
:10000C000C9400000C9400000C9400000C94000064
:10001C000C9400000C9400000C9400000C94000054
:10002C000C9400000C9400000C9400000C94000044
:10003C000C9400000C9400000C9400000C94000034
:10004C000C9400000C9400000C9400000C94000024
:10005C000C9400000C9400000C9400000C94000014
:10006C000C9400000C9400000C9400000C94000004
:10007C000C9400000C9400000C9400000C940000F4
:10008C001027E80364000A000100001000011000B2
:10009C00010001002D4E414E00494E46000001006A
:1000AC004A059E000000F894EE27ECBBF1E0F5BF8A
:1000BC00E5BFE0936C008DE0A2E0BB27ED938A9541
:1000CC00E9F780E090E1A0E0B1E0ED930197E9F76A
:1000DC00EAEAF0E085919591009761F0A591B591D0
:1000EC0005901590BF01F00105900D920197E1F775
:1000FC00FB01F0CFEFEFEDBFE0E1EEBFC0E0D5E0EC
:10010C000C94A1001A930A93E0919B001E2FE078A7
:10011C00D9F300919C00E12FEC7111F4E02F01C098
:10012C00F3CF0991199108951A931A2F5D9BFECF65
:10013C001CB919910895E0E0EABBEBBBE0E9E7BB21
:10014C00E0E0E8BBE4BBE5BBE1BBE2BBE2B9E3B991
:10015C00E0936100E0936200EFE1E0936400E0E083
:10016C00E0936500E0BFE9E6E3BFE0E0E2BFE1BF9A
:10017C00EFBDEEBDEDBDECBDE7BDE6BDEBBDEABD33
:10018C00E9BDE8BDE0937900E0937800E9E6E5BDD0
:10019C00E0E0E4BDE3BDE0938B00E0938A00E093E4
:1001AC008900E0938800E0938100E0938000E09365
:1001BC008700E0938600E0938500E0938400E09351
:1001CC008300E0938200E7BFE0937D00E0936A0038
:1001DC00EABFE9BFEBB9E8E0EAB9E6E0E0939500E5
:1001EC00E0E0E0939000E3E3E9B9E0E0E0939B000A
:1001FC00E0E1E0939A00E6E0E0939D00E0E0E0931C
:10020C009800E3E3E0939900E0E8E8B9E0E0E0BDB2
:10021C00E6B9EDB9E0937400E0E0E0934205E093B9
:10022C0043054424552488249924AA24BB24CC2493
:10023C00DD24E0934405E093450564DFE635D9F40D
:10024C00F201E050FB4FFF93EF935CDFAF91BF9156
:10025C00EC93A0E0B5E0A40DB51DAC91A63539F436
:10026C00E1E0F0E0E0934405F093450504C0F201B1
:10027C0031962F01E5CFA0914405B091450511971A
:10028C00E1F6F201EF5FFA4FA0E0A0836624772439
:10029C00461457049CF1B3D0AC3419F4E1E0F0E00F
:1002AC00B4D0ADD0A23519F4E2E0F0E0AED0E091DC
:1002BC004205F0914305309741F4F401EE5CFA4F9E
:1002CC00ACD0F40131964F0115C0A0914205B0910C
:1002DC004305119741F4F501E75CFA4F9ED0F50107
:1002EC0031965F0107C0F601E25EFA4F96D0F60137
:1002FC0031966F01F30131963F01CACFA2E3B5E00D
:10030C00A80DB91DE0E0EC93A9E3B5E0AA0DBB1D67
:10031C00EC93AEE1B5E0AC0DBD1DEC93E093400564
:10032C00E093410583D0E081E03059F07FD0A0818B
:10033C00FBDEA0E4B5E0ED91FD913196FE93EE93DA
:10034C00F1CFA2E3B5E012D078D0A9E3B5E00ED09E
:10035C00E0934805F093490575D074D0E0914605BB
:10036C00E1BFE0914805E3BD57CFFFCFBA93AA9305
:10037C00B981A881EC918A2FAE2F36D0A82FEE230D
:10038C0011F01196F7CFE894EC91ED3211F46894DA
:10039C0002C0EB3209F4119666277727EC918A2F6D
:1003AC00AE2F19D0A82FEE2379F0FB01660F771F23
:1003BC00660F771F6E0F7F1F660F771FED91FF275C
:1003CC00E0536E0F7F1FEACFFB011EF4E095F09512
:1003DC00319622960895AA93E1E0F991F03310F04A
:1003EC00FA3308F0EE270895AA93E1E0F991F03280
:1003FC0029F0F93010F0FE3008F0EE270895A0E057
:10040C00B5E0A60DB71DAC910895E0934205F093AD
:10041C004305F30131963F0108950F01A0E0B5E0CB
:10042C00A60DB71DEC91D001EC930895E091400519
:10043C00F0914105E25EFA4F0895E0934605F09382
:10044C0047050895E0914605F0914705AFEFB0E000
:10045C0005D0F3CFF195E195F0400895E894F7FFBE
:10046C0002C0F8DF6894EA23FB230EF4F3DF08954F
:00000001FF
